:020000040800F2
:10000000380800204D1600082D0200082F020008B5
:1000100033020008370200083B020008000000001D
:100020000000000000000000000000003F02000887
:1000300041020008000000004302000845020008D9
:10004000671600086716000867160008671600089C
:10005000671600086716000867160008671600088C
:10006000671600086716000867160008671600087C
:10007000671600086716000867160008671600086C
:10008000671600086716000867160008671600085C
:10009000671600086716000867160008671600084C
:1000A000671600086716000867160008671600083C
:1000B000671600086716000867160008671600082C
:1000C000671600086716000867160008671600081C
:1000D00067160008C31500086716000867160008B1
:1000E00067160008671600086716000867160008FC
:1000F00067160008671600086716000867160008EC
:1001000067160008671600086716000867160008DB
:10011000E50600086716000867160008671600085D
:1001200067160008671600086716000867160008BB
:1001300000F002F800F03FF80AA090E8000C8244BA
:100140008344AAF10107DA4501D100F034F8AFF297
:10015000090EBAE80F0013F0010F18BFFB1A43F0A5
:10016000010318472024000040240000103A24BF57
:1001700078C878C1FAD8520724BF30C830C144BF0C
:1001800004680C607047000000230024002500264E
:10019000103A28BF78C1FBD8520728BF30C148BFEA
:1001A0000B607047732902F03B81002070471FB538
:1001B0001FBD10B510BD02F097F91146FFF7F7FF0C
:1001C00000F008F802F0B5F903B4FFF7F2FF03BC42
:1001D00001F09CF901F030F94FF4A06001F056FAFB
:1001E0004FF4E13001F0A1F94FF4E13000F0C2F931
:1001F00000F01AF900F052F900F0A7FF10E000F04B
:10020000BEFE0020074908604FF47A7001F051F9F2
:1002100001200549C1F894014FF47A7001F049F9C1
:10022000EDE700009401234200002342704700BF25
:10023000FEE700BFFEE700BFFEE700BFFEE7704736
:1002400070477047704700000CB500200190009087
:100250006C48006840F480306A49086000BF694813
:10026000006800F4003000900198401C0190009854
:1002700018B90198B0F5A06FF1D16248006800F498
:10028000003010B10120009001E0002000900098A3
:10029000012843D15C48006840F010005A490860CA
:1002A0000846006820F0030008600846006840F037
:1002B0000200086053484068524948600846406858
:1002C00048600846406840F48060486008464068DE
:1002D00020F47C1048600846406840F4E81048600C
:1002E0000846006840F08070086000BF454800681C
:1002F00000F000700028F9D04248406820F0030068
:10030000404948600846406840F00200486000BF2D
:100310003C48406800F00C000828F9D10CBD10B52D
:10032000FFF792FF10BD10B53648006840F001009D
:1003300034490860084640683449084031494860FB
:1003400008460068324908402E490860084600689F
:1003500020F4802008600846406820F4FE004860D1
:100360004FF41F008860FFF7DAFF4FF00060294963
:10037000086010BD10B5002100200022214B5B68F1
:1003800003F00C0121B1042906D0082928D107E087
:10039000214B224C236027E01F4B204C236023E09D
:1003A000184B5B6803F47010164B5B6803F48032E3
:1003B000022303EB904022B9194B4343174C2360AF
:1003C0000DE0104B5B6803F4003323B1144B43433F
:1003D000124C236003E0104B4343104C236003E0B6
:1003E0000D4B0E4C236000BF00BF064B5B68C3F390
:1003F00003130C4CE15C094B1B68CB40074C23609A
:1004000010BD000000100240002002400000FFF874
:10041000FFFFF6FE08ED00E000127A000000002069
:1004200000093D000400002008B50121482001F02A
:10043000B7FC2020ADF8000010208DF80300032049
:100440008DF802006946134801F0EEF920211148A9
:1004500001F097FA2020ADF8000069460E4801F03F
:10046000E3F920210C4801F08CFA4FF48070ADF8CC
:10047000000010208DF8030003208DF8020069466B
:10048000044801F0D1F94FF48071024801F079FA83
:1004900008BD0000000C01400018014008B5012112
:1004A000442001F07DFC1820ADF8000048208DF8B4
:1004B000030069462C4801F0B7F90120ADF80000AF
:1004C00028208DF803006946284801F0ADF908BDE1
:1004D00010B5044614B1012025490870244800785D
:1004E00058B31021204801F032FA50B108211E48BB
:1004F00001F02DFA28B101211C4801F028FA012849
:100500001BD10A2000F0D5FF0020194908701021E6
:10051000154801F01CFA08B9012010BD0821124845
:1005200001F015FA08B90220F7E701210F4801F0A0
:100530000EFA012815D10320EFE710210A4801F037
:1005400006FA01280DD10821074801F000FA012818
:1005500007D10121054801F0FAF910B90120044939
:1005600008700020D9E70000001801400008014091
:100570001400002010B586B004460121C80401F023
:100580001CFC0121102001F00BFC4FF48060ADF841
:10059000140003208DF8160018208DF8170005A907
:1005A0004D4801F041F94FF40060ADF8140004200B
:1005B0008DF8170005A9484801F036F934208DF868
:1005C000000003208DF801008DF8020001208DF855
:1005D0000300684601F05FF801940020ADF80800C0
:1005E000ADF80A00ADF80C00ADF810000C20ADF825
:1005F0000E0001A9394801F07AFC012240F2255190
:10060000364801F00CFD0121344801F0FCFC06B035
:1006100010BD10B504460BE000BF40212F4801F08B
:10062000CDFD0028F9D014F8011B2C4801F058FD2D
:1006300020780028F0D110BD10B5044600F07AF8FB
:100640002046FFF7E6FF26A0FFF7E3FF10BD2DE9E8
:10065000F04180460D4616461F46002414E04046F1
:10066000FFF7EAFF002404E0384600F022FF601C98
:10067000C4B2142CF8DB284600F074F910B1012044
:10068000BDE8F081601CC4B2B442E8DB0020F7E7AB
:1006900010B5044600F04EF82046FFF7BAFF10BD33
:1006A0002DE9F04180460C4615461E4600270EE017
:1006B0004046FFF7EDFFB0B200F0FBFE204600F031
:1006C00051F910B10120BDE8F081781CC7B2AF42EA
:1006D000EEDB0020F7E7000000100140004C004076
:1006E0000D0A000010B5002440F22551EA4801F03F
:1006F0007BFD90B1E84801F0F7FCC4B2E748E84957
:1007000009784454E6480078401CE54908700846DA
:100710000078642801DD002008700821DE4801F01F
:100720004DFD30B10821DC4801F055FDDA4801F0FB
:10073000DBFC10BD002004E00021D84A1154411C0C
:1007400088B26428F8DB0021D54A1170704738B5AB
:1007500005461A208DF8000000208DF80100322394
:100760000322D0A1D0A0FFF772FF044614B96FF0A6
:10077000050038BD32230322CAA1CEA0FFF767FFD0
:10078000044614B96FF00600F3E732230322CDA12B
:10079000CD480068FFF75BFF044614B96FF007000F
:1007A000E7E72846FFF735FF4FF4AF730122BDA1FD
:1007B0006846FFF775FF044614B96FF00800D8E7E4
:1007C0000120D6E72DE9F04106460025FFF7B2FFEC
:1007D00042E0BEA0FFF730FF002504E0642000F0F7
:1007E00068FE681CC5B2142DF8DB00242CE0AB4871
:1007F000005D2B2826D1A949601C085C432821D123
:10080000A01C085C52281DD1E01C085C452819D1A9
:10081000201D085C472815D1601D085C3A2811D1BD
:10082000E01D085C30280DD104F10900085C312876
:1008300004D004F10900085C352803D1012501200A
:10084000BDE8F081601CC4B2642CD0DB781CC7B258
:10085000B74201DD0020F3E7002DBAD00020EFE71A
:1008600010B5322303228FA19BA0FFF7F0FE0446B0
:1008700024B99AA001F0FEFC002010BD3223022210
:100880009DA19FA0FFF7E3FE044624B99FA001F0BD
:10089000F1FC0020F1E70320FFF794FF044624B9A0
:1008A000A1A001F0E7FC0020E7E7A7A001F0E2FC2F
:1008B0000120E2E770B505463223032279A186A024
:1008C000FFF7C5FE044614B94FF0FF3070BD322368
:1008D000022289A18AA0FFF7BAFE044614B96FF07C
:1008E0000100F3E70320FFF76DFF044614B96FF032
:1008F0000200EBE72846FFF72AFF0446012C02D04E
:100900006FF01500E2E70120E0E710B53223032283
:1009100064A171A0FFF79BFE044614B94FF0FF30AD
:1009200010BD3223022274A175A0FFF790FE044689
:1009300014B96FF00100F3E70320FFF743FF04460B
:1009400014B96FF00200EBE73223022255A186486A
:100950000068FFF77CFE044614B96FF00300DFE780
:100960000120DDE710B5044621464C4801F0EBFCC0
:1009700008B1012010BD0020FCE770B5322303222E
:1009800048A17AA0FFF763FE054615B96FF0140081
:1009900070BD002403E0642000F08BFD641C142C67
:1009A000F9DB74A0FFF7DEFF10B96FF01500EFE779
:1009B0000120EDE738B505461A208DF8000000202B
:1009C0008DF80100322303223EA16D480068FFF735
:1009D0003EFE044614B96FF0070038BD2846FFF705
:1009E00018FE4FF4AF73012266A16846FFF758FE68
:1009F000044614B96FF00800EFE70120EDE770B589
:100A000005463223032227A133A0FFF720FE044628
:100A100014B94FF0FF3070BD3223022236A138A046
:100A2000FFF715FE044614B96FF00100F3E7032049
:100A3000FFF7C8FE044614B96FF00200EBE732235B
:100A4000022218A118A0FFF702FE044614B96FF0A5
:100A50002400E0E73223022212A14CA0FFF7F7FDA9
:100A6000044614B96FF02600D5E7322302220DA107
:100A70004BA0FFF7ECFD044614B96FF02500CAE760
:100A80002846FFF797FF0446012C00D1C3E76FF01B
:100A90002700C0E7401C7047004C00408400002045
:100AA000240000204F4B000041542B434D47463D4E
:100AB0003100000041542B435343533D2247534DD3
:100AC000220000003E0000001C00002041542B4387
:100AD0005245473F000000004154000077686572AE
:100AE0006520697320796F75722053494D39303014
:100AF000413F0D0A000000005245414459000000EA
:100B000041542B4350494E3F000000007768657206
:100B10006520697320796F75722053494D204361B8
:100B200072643F0D0A000000492063616E27742043
:100B3000726567697374657220746865206E657488
:100B4000776F726B0D0A000053494D3830304320E7
:100B5000262053494D206361726420616C6C2072C1
:100B6000656164790D0A00001800002041542B448F
:100B70004C5354002243414C4C222C3100000000C5
:100B8000200000202B434D475300000041542B43CD
:100B9000534D503D31372C3136372C312C38000035
:100BA00041542B435343533D2255435332220000BB
:100BB0003EB50546002446E0285DC11700EB1171E3
:100BC00009110DF814101DF81400092806DD1DF890
:100BD00014003730C0B20DF8140005E01DF8140001
:100BE0003030C0B20DF81400285DC11700EB117150
:100BF0000911A0EB0111C9B2012202EB44020DF868
:100C00000210012000EB44001DF8000009280CDD53
:100C1000012000EB44001DF800003730C0B2012174
:100C200001EB44010DF801000BE0012000EB440052
:100C30001DF800003030C0B2012101EB44010DF875
:100C40000100601CC4B2042CB6DB00208DF8080043
:100C5000FE4908606846FFF7EFFC6946FCA001F01A
:100C600009FB3EBD70B50446002520E004F080007D
:100C700020B18021F94800F084FE03E08021F7488C
:100C800000F081FE142000F0F0FB2021F34800F07A
:100C90007AFE142000F0E9FB2021F04800F071FEFC
:100CA000142000F0E2FB6006040E681CC5B2082D9B
:100CB000DCDB70BD70B504460D467E2000EA4406BC
:100CC0001021E64800F05FFE3046FFF7CBFF2846D4
:100CD000FFF7C8FF1021E14800F053FE70BD70B56A
:100CE00000251CE06006040E2021DC4800F04BFECD
:100CF000142000F0BAFB4021D84800F028FE01285B
:100D000001D144F00104142000F0AFFB2021D348AE
:100D100000F037FE142000F0A8FB681CC5B2082DB7
:100D2000E0DB204670BD70B504467E2000EA44003A
:100D300040F080051021C94800F025FE2846FFF745
:100D400091FFFFF7CCFF06461021C44800F019FEC2
:100D5000304670BD70B505460C462846FFF7E3FFE8
:100D6000064646EA04012846FFF7A4FF70BD70B5A9
:100D700005460C462846FFF7D6FF064626EA04013C
:100D80002846FFF797FF70BD2DE9FE4F06468846BF
:100D900091469A46DDF830B0022002900020019082
:100DA00000900C2E06D00E2E09D11220019010209A
:100DB000009005E0772001903020009000E000BF17
:100DC00000BF019840F080010220FFF773FF8021EF
:100DD0000420FFF7CCFF00210120FFF76BFF8021EB
:100DE0000A20FFF7B7FF002505E018F805100920D5
:100DF000FFF760FF6D1C4D45F7D331460120FFF72B
:100E000059FF0C2E03D180210D20FFF7A3FF4FF4D3
:100E10007A7500BF0420FFF786FF04466D1E35B1CA
:100E200004F0010018B9009820400028F2D0802179
:100E30000D20FFF79CFF95B30620FFF774FF00F02D
:100E40001B0068BB002002900198204000F00100C8
:100E500008B1012002900C2E24D10A20FFF763FF75
:100E600004460C20FFF75FFF00F007072FB1601E5C
:100E700007EBC000CBF8000002E0E000CBF8000078
:100E800004B90124122C00DD1224002505E00920FC
:100E9000FFF749FF0AF805006D1CA542F7D301E0F2
:100EA0000220029080210C20FFF754FF0021012036
:100EB000FFF700FF0298BDE8FE8FF0B587B005464A
:100EC000002708210846FFF752FF00210D20FFF7F9
:100ED000F1FE80210E20FFF74AFF93208DF80800D5
:100EE00020208DF8090001A802AB022202A900907F
:100EF0000C20FFF749FF064686B9002407E002A848
:100F0000005D285502A8005D4740601CC4B2042C57
:100F1000F5DB02A8005DB84200D0022680210E2039
:100F2000FFF718FF304607B0F0BD70B588B0054632
:100F30000C4608210846FFF71AFF07210D20FFF78E
:100F4000B9FE03211420FFF705FF8DF80C5002A80D
:100F500003AB012203A900900C20FFF715FF064602
:100F60004EB90298102806D19DF80C0020709DF80B
:100F70000D00607000E00226304608B070BD10B56C
:100F800037495220FFF7D1FF3649087008460078EC
:100F900030B9022008703448FFF78FFF31490870DC
:100FA0003048007810B93048FFF702FE10BD10B588
:100FB0001420FFF7B8FE044604F0030018B903211B
:100FC0001420FFF7C7FE10BD10B50446412C24D1F4
:100FD00008210846FFF7CBFE3D211120FFF76AFEEE
:100FE00086211720FFF766FE7F212620FFF762FE8D
:100FF0001E212D20FFF75EFE00212C20FFF75AFE58
:101000008D212A20FFF756FE3E212B20FFF752FEAE
:10101000022000F02AFAFFF7CAFF10BD10B5012127
:10102000124800F0AEFC012000F01FFA01210F4829
:1010300000F0A9FC012000F018FA01210B4800F093
:10104000A0FC012000F011FA0F2111E0A081214243
:1010500049443E3E3E25730D0A0000000008014051
:10106000260000206200002028000020000C014023
:101070000120FFF71FFE00BF0120FFF754FE00F024
:1010800010000028F8D1012000F0EFF93D211120D7
:10109000FFF710FE1E212D20FFF70CFE00212C2053
:1010A000FFF708FE8D212A20FFF704FE3E212B20AA
:1010B000FFF700FE40211520FFF7FCFD10BD08B52D
:1010C00001210C2000F06CFE1020ADF800008DF81E
:1010D000030003208DF802006946D54800F0A4FB08
:1010E0002020ADF8000010208DF8030003208DF8BB
:1010F00002006946CE4800F097FB4020ADF80000A2
:1011000004208DF8030003208DF802006946C848CA
:1011100000F08AFB8020ADF8000010208DF803005D
:1011200003208DF802006946C14800F07DFB0120D4
:10113000ADF8000010208DF8030003208DF80200A8
:101140006946BC4800F070FB08BD10B5FFF7B7FF5B
:101150000121B84800F015FC1021B54800F011FC41
:10116000FFF75CFF4120FFF72FFF10BD10B50321F3
:101170001420FFF7FCFD10BD2DE9F041074688461D
:10118000154604210520FFF7F2FD00210120FFF79D
:1011900091FD80210A20FFF7DDFD002405E0395D87
:1011A0000920FFF787FD601CC4B24445F7DB03212B
:1011B0000120FFF77FFDFF2400BF0520FFF7B3FDEF
:1011C0000646601EC4B21CB106F004000028F4D02C
:1011D0002220FFF7A8FD28702120FFF7A4FD6870EA
:1011E000BDE8F08170B588B0054693208DF80C00FD
:1011F00070208DF80D0000208DF8120000240BE007
:10120000295D03AAA01C11549DF81200295D4840D5
:101210008DF81200601CC4B2042CF1DB0DF1130236
:10122000072103A8FFF7A8FF08210846FFF79FFD45
:1012300002A803AB092203A900900C20FFF7A4FD2C
:10124000064626B90298182801D1002600E0022699
:10125000304608B070BD2DE9F04387B006460F4612
:10126000904699468DF808608DF80970002406E0D4
:1012700018F8041002AAA01C1154601CC4B2062C59
:10128000F6DB002407E019F8041002AA04F10800B4
:101290001154601CC4B2062CF5DB01A802AB0C2271
:1012A00002A900900E20FFF76FFD05462DB908201A
:1012B000FFF739FD00F0080000B90225284607B005
:1012C000BDE8F083F0B587B006460F46A0208DF844
:1012D00008008DF809600DF10A02022102A8FFF74B
:1012E0004BFF01A802AB042202A900900C20FFF7DB
:1012F0004BFD054645B90198042805D19DF8080025
:1013000000F00F000A2800D0022535BB1022394614
:1013100002A801F02AF8002404E0385D02A908556B
:10132000601CC4B2102CF8DB06AA102102A8FFF73B
:1013300023FF01A802AB122202A900900C20FFF7A4
:1013400023FD054645B90198042805D19DF80800FC
:1013500000F00F000A2800D00225284607B0F0BD93
:10136000F0B587B005460E4630208DF808008DF8A0
:1013700009500DF10A02022102A8FFF7FDFE01A8A3
:1013800002AB042202A900900C20FFF7FDFC0746E7
:1013900067B90198902809D1002404E002A8005DF3
:1013A0003055601CC4B2102CF8DB00E00227384630
:1013B00007B0F0BD00B587B050208DF808000020C0
:1013C0008DF809000DF10A02022102A8FFF7D4FEF0
:1013D00001A802AB042202A900900C20FFF7D4FC64
:1013E000002007B000BDF8B504460D4617461E465E
:1013F0000020009069465220FFF797FD6846FFF7EE
:101400005CFD2046FFF7EEFE23462A4610216020B1
:10141000FFF721FF27B131461020FFF7A1FF03E0BE
:1014200031461020FFF74EFFFFF7C4FFF8BD000064
:1014300000080140000C014010B56FF0040000F0FE
:1014400074F92E4800682E49B0FBF1F02D49087060
:101450000846007800EB4001C1EBC0104FF6FF7169
:1014600001EAC0002849088010BD0146254A1278CB
:101470004A434FF0E0235A6100229A611A461269EA
:1014800042F001021A6100BF4FF0E022106900F043
:1014900001021AB100F48032002AF5D04FF0E022A8
:1014A000126922F001024FF0E0231A6100229A61D2
:1014B00070470146144A12884A434FF0E0235A61AC
:1014C00000229A611A46126942F001021A6100BFB5
:1014D0004FF0E022106900F001021AB100F48032EE
:1014E000002AF5D04FF0E022126922F001024FF0FD
:1014F000E0231A6100229A6170470000000000207A
:1015000000127A006400002066000020014600BF3F
:10151000704700BF494A128802F04002002AF9D001
:10152000C2B2464B1B1D1A80704710B586B00446E8
:10153000012144F2040000F033FC4FF40070ADF8D8
:10154000140003208DF8160018208DF8170005A947
:101550003B4800F069F94FF48060ADF814000420B6
:101560008DF8170005A9364800F05EF925208DF8A2
:10157000000003208DF801008DF8020001208DF895
:101580000300684600F087F801940020ADF80800D9
:10159000ADF80A00ADF80C00ADF810000C20ADF865
:1015A0000E0001A9254800F0A2FC012240F22551BD
:1015B000224800F034FD0121204800F024FD06B04F
:1015C00010BD10B540F225511C4800F00DFE10B3BF
:1015D0001A4800F089FDC4B21A48008800F400409F
:1015E000C8B91848008800F4804060B10A2C03D0C4
:1015F00000201449088020E01248008840F4004090
:101600001049088019E00D2C06D10E48008840F4DE
:1016100080400C49088010E00A480088C0F30D00A3
:1016200009490C5407480088401C064908800846B0
:101630000088C72801DD0020088010BD0038014067
:10164000000801406C00002010010020094880477C
:1016500009480047FEE7FEE7FEE7FEE7FEE7FEE794
:10166000FEE7FEE7FEE7FEE704480549054A064BAC
:1016700070470000270300083101000838020020ED
:101680003808002038040020380400203149014384
:10169000314A1160704770B5002100230F22C478D1
:1016A00004B32D4C246804F4E064C4F5E064210A1A
:1016B000C1F10403CA40447804FA03F18478144069
:1016C00021430901254C0678A155047804F01F0533
:1016D0000124AC4005786D11AD0005F1E025C5F899
:1016E000004109E0047804F01F050124AC401C4DC2
:1016F0000678761145F8264070BD1A4A0A40024322
:10170000154B1B1F1A60704739B1134A121D12681E
:101710000243114B1B1D1A6006E00F4A121D12688E
:1017200082430D4B1B1D1A607047042808D14FF0EF
:10173000E021096941F004014FF0E022116107E066
:101740004FF0E021096921F004014FF0E02211611E
:10175000704700000000FA050CED00E000E400E036
:1017600080E100E080FFFF1F10B50446CC488442B2
:1017700008D10121042000F02DFB0021042000F0FD
:1017800029FB46E0C748844208D10121082000F027
:1017900021FB0021082000F01DFB3AE0C2488442F2
:1017A00008D10121102000F015FB0021102000F0CD
:1017B00011FB2EE0BD48844208D10121202000F019
:1017C00009FB0021202000F005FB22E0B8488442FC
:1017D00008D10121402000F0FDFA0021402000F056
:1017E000F9FA16E0B348844208D10121802000F0C4
:1017F000F1FA0021802000F0EDFA0AE0AE488442C0
:1018000007D10121801500F0E5FA0021A01500F0B4
:10181000E1FA10BD10B50121084600F0DBFA002105
:10182000012000F0D7FA10BD2DE9F0410246002555
:101830000026002000230024002791F803C00CF0AC
:101840000F0591F803C00CF0100CBCF1000F03D091
:1018500091F802C04CEA050591F800C0BCF1000FF8
:1018600031D0146800202BE04FF0010C0CFA00F38B
:10187000B1F800C00CEA03069E4220D183004FF06D
:101880000F0C0CFA03F7BC4305FA03FC4CEA040402
:1018900091F803C0BCF1280F06D14FF0010C0CFAEF
:1018A00000FCC2F814C00AE091F803C0BCF1480F74
:1018B00005D14FF0010C0CFA00FCC2F810C0401C1E
:1018C0000828D1D31460B1F800C0BCF1FF0F34DD9B
:1018D000546800202EE000F1080C4FF0010808FACF
:1018E0000CF3B1F800C00CEA03069E4221D183003C
:1018F0004FF00F0C0CFA03F7BC4305FA03FC4CEA5B
:10190000040491F803C0BCF1280F05D100F1080CC4
:1019100008FA0CF8C2F8148091F803C0BCF1480F23
:1019200007D100F1080C4FF0010808FA0CF8C2F8D2
:101930001080401C0828CED35460BDE8F0814FF6DB
:10194000FF710180022181700421C170704702463D
:10195000002093680B400BB1012000E0002070478D
:101960000146886880B2704702460020D3680B4069
:101970000BB1012000E0002070470146C86880B22A
:10198000704701617047416170470AB1016100E031
:1019900041617047C16070474FF480320A438261F1
:1019A0008161826182698269704702460020434BEF
:1019B00018684FF68073184040EA021008433F4B06
:1019C000186070473E49C8617047F0B50A46002369
:1019D00000240021002500F00046B6F1004F02D19E
:1019E000364EF16901E0354E7168C0F3034583B2AC
:1019F00000F44016B6F5401F08D121F070612F4E5B
:101A0000766826F070662D4F7E6012E000F4801636
:101A1000B6F5801F06D1032606FA05F4A14341F06E
:101A2000706106E0460D360103FA06F6B14341F057
:101A3000706122B1460D360103FA06F6314300F01B
:101A40000046B6F1004F02D11C4EF16101E01B4E81
:101A50007160F0BD30B500228B071C0F0F2303FA15
:101A600004F2164B08338C1053F824309343134C74
:101A700008348D1044F8253023468C1053F8243058
:101A80008C07240F00FA04F423430C4C08348D1007
:101A900044F8253030BD0A49DC3108607047000049
:101AA00000080140000C01400010014000140140FA
:101AB00000180140001C01400020014000000140CE
:101AC00000002042DF48006840F00100DD49086066
:101AD00008464068DC490840DA4948600846006822
:101AE000DA490840D74908600846006820F4802099
:101AF00008600846406820F4FE0048604FF41F006C
:101B000088607047CF49096821F48031CD4A11605F
:101B10001146096821F480211160B0F5803F03D09F
:101B2000B0F5802F0ED106E0C649096841F4803136
:101B3000C44A116007E0C349096841F4A021C14AC1
:101B4000116000E000BF00BF704710B501460022E1
:101B5000002300204A11012A02D1BA4C236806E072
:101B6000022A02D1B74C236A01E0B64C636A01F045
:101B70001F02012494401C400CB1012000E0002011
:101B800010BD38B5002000900024002500BF312092
:101B9000FFF7DBFF05460098401C00900098B0F569
:101BA000A06F01D0002DF2D03120FFF7CEFF08B199
:101BB000012400E00024204638BD01460020A14A4F
:101BC000106820F0F80040EAC10010607047A0499A
:101BD00008607047024600209A4B586820F47C1039
:101BE00042EA01031843974B5860704798490866CA
:101BF000704701460020934A506820F003000843D4
:101C0000506070478F48406800F00C0070470146F4
:101C100000208C4A506820F0F00008435060704764
:101C200001460020874A506820F4E0600843506075
:101C3000704701460020834A506820F4605040EA13
:101C4000C1005060704729B17E4A527A02437D4BF1
:101C50005A7204E07B4A527A82437A4B5A72704736
:101C60007B49D8310860704701460020754A5068AA
:101C700020F440400843506070470021714A2032F0
:101C80001170704A82F82010012802D004280AD16D
:101C900004E001216B4A2032117005E00521694AF8
:101CA0002032117000E000BF00BF70476949086032
:101CB00070476449096A0143624A11627047654985
:101CC00044390860704730B5002100220024002309
:101CD0005C4D6D6805F00C0121B1042905D008297F
:101CE00023D105E05C4D056022E05B4D05601FE0FF
:101CF000544D6D6805F47012524D6D6805F48034D2
:101D0000022505EB92421CB9544D554305600BE08A
:101D10004C4D6D6805F400351DB1504D55430560BF
:101D200002E04D4D5543056002E04B4D056000BF9C
:101D300000BF444D6D6805F0F0010909484D6B5C2A
:101D40000568DD4045603F4D6D6805F4E061090AB6
:101D5000434D6B5C4568DD4085603A4D6D6805F428
:101D60006051C90A3E4D6B5C4568DD40C560354D2C
:101D70006D6805F44041890B3A4D6B5CC568B5FB55
:101D8000F3F5056130BD29B12E4A526902432D4B4E
:101D90005A6104E02B4A526982432A4B5A617047C8
:101DA00029B1284A92690243264B9A6104E0254AE8
:101DB00092698243234B9A61704729B1214AD269C3
:101DC0000243204BDA6104E01E4AD26982431D4B74
:101DD000DA61704729B11B4AD2680243194BDA60B5
:101DE00004E0184AD2688243164BDA60704729B182
:101DF000144A12690243134B1A6104E0114A126932
:101E00008243104B1A61704712494039086070478D
:101E10000F49C86470470B49C87170470948406A48
:101E200040F0807007494862704701460020054A2B
:101E300092680A400AB1012000E000207047014981
:101E400088727047001002400000FFF8FFFFF6FEA6
:101E5000000042428004424200127A0000093D0024
:101E60006E0000207E00002010B50446FB4884422E
:101E700009D101218803FFF7ADFF00214FF4804015
:101E8000FFF7A8FF32E0F648844209D10121480457
:101E9000FFF7ADFF00214FF40030FFF7A8FF25E06A
:101EA000F048844209D101218804FFF7A0FF0021F6
:101EB0004FF48020FFF79BFF18E0EB48844209D1E4
:101EC0000121C804FFF793FF00214FF40020FFF722
:101ED0008EFF0BE0E548844208D101210805FFF799
:101EE00086FF00214FF48010FFF781FF10BD2DE920
:101EF000F04786B005460E460024A24600BFA14624
:101F00000027B08900B100BF2F462C8A4CF6FF7025
:101F10000440F08804432C82AC894EF6F310044050
:101F2000B08831890843718908430443AC81AC8A85
:101F30004FF6FF400440B0890443AC8201A8FFF78C
:101F4000C2FEC648874202D1DDF810A001E0DDF8EC
:101F50000CA0A88900F4004040B10AEBCA0000EBD5
:101F60000A1031684900B0FBF1F807E00AEBCA003B
:101F700000EB0A1031688900B0FBF1F86420B8FB6F
:101F8000F0F004012009642101FB1089A88900F404
:101F9000004040B1322000EBC900B0FBF1F000F08E
:101FA0000700044308E0322000EB09106421B0FB75
:101FB000F1F000F00F0004432C8106B0BDE8F0877B
:101FC0004FF41651016000218180C18001810C21F4
:101FD000418100218181704710B502460020108A9E
:101FE0004FF2FF0318400B884C8823438C8823430F
:101FF000CC8823431843108210BD0021018041800A
:102000008180C180704721B1828942F4005282816F
:1020100004E082894DF6FF731A4082817047F0B563
:102020000346002400260025002040F66A17B94226
:1020300000D100BF1846C1F3421401F01F0601276A
:1020400007FA06F5012C01D10C3004E0022C01D175
:10205000103000E014301AB107682F43076002E027
:102060000768AF430760F0BD1AB1838A0B438382D0
:1020700002E0838A8B4383827047028A4FF6F073B3
:102080001A400282028A0A430282704782894FF212
:10209000FF731A40828182890A438281704721B18D
:1020A000828942F00202828104E082894FF6FD7348
:1020B0001A4082817047028A4FF6DF731A4002820B
:1020C000028A0A430282704721B1028A42F48042A6
:1020D000028204E0028A4BF6FF731A4002827047C4
:1020E000C1F308028280704701468888C0F3080067
:1020F0007047818941F0010181817047028BD2B222
:102100000283028B42EA012202837047028B02F4AF
:102110007F420283028B0A430283704721B1828A85
:1021200042F02002828204E0828A4FF6DF731A4076
:102130008282704721B1828A42F01002828204E0DA
:10214000828A4FF6EF731A408282704721B1828AE9
:1021500042F00802828204E0828A4FF6F7731A4046
:102160008282704721B1828942F40042828103E079
:102170008289C2F30E028281704721B1828A42F4C1
:102180000062828204E0828A4FF2FF731A408282E8
:102190007047828A4FF6FB731A408282828A0A4312
:1021A0008282704721B1828A42F00202828204E078
:1021B000828A4FF6FD731A408282704702460020E1
:1021C000B1F5007F00D100BF13880B400BB1012097
:1021D00000E00020704701F40072B2F5007F00D1EA
:1021E00000BFCA430280704770B502460024002336
:1021F0000025002040F66A16B14200D100BFC1F3AD
:10220000421501F01F03012606FA03F3012D02D146
:102210009689334006E0022D02D1168A334001E050
:10222000968A33400C12012606FA04F416883440CC
:1022300013B10CB1012000E0002070BD10B50022E8
:10224000002340F66A14A14200D100BF0A12012403
:102250009440A3B2DC43048010BD0000003801406C
:102260000044004000480040004C00400050004046
:10227000704700000FB4044910B503AA029800F09B
:10228000D3F810BC5DF814FB680000202DE9F04184
:102290000E460446002020622046E168884730B39D
:1022A000252805D0D4E901219047206A401CF2E797
:1022B000E168204600278847050018D0A5F14100B5
:1022C000192802D820354FF40067324629462046A7
:1022D0002760FDF767FF40B1012804D0F61D26F006
:1022E00007060836D8E7361DD6E72846DAE7206A1B
:1022F000BDE8F08170B50C460546012A05D0287866
:10230000800600D5EA69002302E0012305E05B1C9A
:10231000934202D2E05C0028F9D1A869E618C01AFD
:10232000A861286A184428622846AFF3008004E0B8
:10233000D5E9012114F8010B9047B442F8D328469F
:10234000AFF3008070BD30B505460B462A4613F842
:10235000014B12F8010B08B1A042F8D01CB10028C3
:1023600002D06D1CF1E7284630BD032A40F23080D0
:1023700010F0030C00F0158011F8013BBCF1020FC6
:10238000624498BF11F801CB00F8013B38BF11F847
:10239000013BA2F1040298BF00F801CB38BF00F85E
:1023A000013B11F0030300F05180083AC0F00880AF
:1023B00051F8043B083A51F804CBA0E80810F5E7BF
:1023C000121D5CBF51F8043B40F8043BAFF30080A2
:1023D000D20724BF11F8013B11F801CB48BF11F817
:1023E000012B24BF00F8013B00F801CB48BF00F8E7
:1023F000012B7047704770477047704710B54369AD
:1024000013B1AFF3008001E0FFF774FF012010BDAE
:10241000127800F124010A7000224A700122EDE7CF
:1024200011684FF0FF32E9E7074B70B50D467B446A
:1024300000F043F80446284600F052F810B14FF07F
:10244000FF3070BD204670BDE1F0FFFF10B5203AAF
:10245000C0F00B80B1E81850203AA0E81850B1E85D
:102460001850A0E81850BFF4F5AF5FEA027C24BF13
:10247000B1E81850A0E8185044BF18C918C0BDE80A
:1024800010405FEA827C24BF51F8043B40F8043BD3
:1024900008BF7047D20728BF31F8023B48BF11F888
:1024A000012B28BF20F8023B48BF00F8012B7047E2
:1024B00001694A1C02610878704700B58FB0CDE908
:1024C00001310021059105497944CDE903101146F8
:1024D0006846FFF7DBFE0FB000BD0000E5FFFFFF21
:1024E000007B00F080007047754600F029F8AE468A
:1024F00005006946534620F00700854618B020B510
:10250000FFF7B2F8BDE820404FF000064FF000079B
:102510004FF000084FF0000B21F00701AC46ACE88B
:10252000C009ACE8C009ACE8C009ACE8C0098D46F8
:1025300070470446AFF300802046FDF745FE0000DB
:1025400000487047D801002041542B434D47533D6C
:10255000223030333130303330303033303030337C
:10256000383030333622000041542B434D47533D21
:102570002231303038362200415444313030383640
:102580003B000000A425000800000020840000009B
:102590006C0100082826000884000020B407000011
:1025A0008801000800A24A040000000000000000AA
:1025B000010203040607080901000000782500084D
:1025C0006825000848250008000000000000000001
:1025D000000000000000C43A68D9536A0B01D079AA
:1025E0001F39B0B18FA5059E0A88FFFFFFFFFFFFCF
:1025F000AA07020009BC000000000000FF078029B4
:10260000FFFFFFFFFFFF00080000000000000000C8
:102610000000000000000102030401020304060799
:0826200008090204060800008D
:0400000508000131BD
:00000001FF
